:020000040800F2
:1000000000500020051700084D1700084D17000884
:100010004D1700084D1700084D170008000000009C
:100020000000000000000000000000004D17000864
:100030004D170008000000004D1700084D1700087C
:100040004D1700084D1700084D1700084D17000800
:100050004D1700084D1700084D1700084D170008F0
:100060004D1700084D1700084D1700084D170008E0
:100070004D1700084D1700084D1700084D170008D0
:100080004D1700084D1700084D1700084D170008C0
:100090004D1700084D1700084D1700084D170008B0
:1000A0004D1700084D1700084D1700084D170008A0
:1000B0004D1700084D1700084D1700084D17000890
:1000C0004D1700084D1700084D1700084D17000880
:1000D0004D1700084D1700084D1700084D17000870
:1000E0004D1700084D1700084D17000800000000CC
:1000F0000000000000000000000000000000000000
:0C01000000000000000000005FF808F1A3
:10010C000348044B834202D0034B03B1184770479A
:10011C000C0000200C000020000000000548064BDD
:10012C001B1AD90F01EBA301491002D0034B03B1E9
:10013C00184770470C0000200C0000200000000045
:10014C0010B5064C237843B9FFF7DAFF044B13B113
:10015C000448AFF300800123237010BD0C00002075
:10016C00000000005017000808B5054B1BB10549ED
:10017C000548AFF30080BDE80840FFF7CFBF00BFD4
:10018C000000000010000020501700080346024435
:10019C00934200D1704703F8011BF9E770B50026B4
:1001AC000C4D0D4C641BA410A64209D101F0CAFAE7
:1001BC0000260A4D0A4C641BA410A64205D170BD42
:1001CC0055F8043B98470136EEE755F8043B984741
:1001DC000136F2E7E4180008E4180008E4180008F7
:1001EC00E818000880B588B000AF00F0D3F800F034
:1001FC0089F8414B9B69404A43F0040393613E4BA1
:10020C009B6903F00403BB60BB683B4B9B693A4A98
:10021C0043F010039361384B9B6903F010037B6030
:10022C007B6807F10C0300221A605A609A60DA604E
:10023C000123FB6001233B6100237B610223BB6133
:10024C0007F10C0319462D4800F01EF9002201217C
:10025C002A4800F0A7FB0423FB6000233B61012329
:10026C007B6107F10C031946244800F00DF94FF49B
:10027C000053FB6001233B6100237B610223BB61C4
:10028C0007F10C0319461E4800F0FEF801224FF44A
:10029C0000511B4800F086FB0023FB6114E0002298
:1002AC004FF40051164800F07DFB962000F0C8F882
:1002BC0001224FF40051124800F074FB962000F01C
:1002CC00BFF8FB690133FB61FB69012BE7DD0421FE
:1002DC000A4800F047FB0346002B06D100224FF4DE
:1002EC000051074800F05EFBF1E701224FF400518A
:1002FC00034800F057FBEAE70010024000080140F9
:10030C000010014080B590B000AF07F1180328220F
:10031C0000211846FFF73AFF3B1D00221A605A6075
:10032C009A60DA601A610223BB610123BB6210235D
:10033C00FB6200237B6307F11803184600F05EFB99
:10034C000346002B01D000F018F80F237B6000232C
:10035C00BB600023FB6000233B6100237B613B1DE2
:10036C000021184600F0B8FE0346002B01D000F027
:10037C0004F800BF4037BD4680BD80B400AF72B6F4
:10038C0000BF00BFFDE780B483B000AF7860396078
:10039C0000BFFDE780B500AF084B1B68074A43F070
:1003AC0010031360032001F049F90F2000F00EF840
:1003BC0000F006F80023184680BD00BF0020024064
:1003CC0080B400AF00BFBD4680BC704780B582B022
:1003DC0000AF7860124B1A68124B1B7819464FF419
:1003EC007A73B3FBF1F3B2FBF3F3184601F072F935
:1003FC000346002B01D001230EE07B680F2B0AD89B
:10040C00002279684FF0FF3001F038F9064A7B681A
:10041C001360002300E0012318460837BD4680BD59
:10042C0008000020040000200000002080B400AF71
:10043C00024B1B681846BD4680BC70472800002044
:10044C0080B584B000AF7860FFF7F0FFB8607B68D0
:10045C00FB60FB68B3F1FF3F05D00A4B1B781A46D3
:10046C00FB681344FB6000BFFFF7E0FF0246BB686C
:10047C00D31AFA689A42F7D800BF00BF1037BD46AE
:10048C0080BD00BF0400002080B58AB000AF78604A
:10049C00396000237B6200233B627B68964A93425F
:1004AC0013D07B68954A93420FD07B68944A934251
:1004BC000BD07B68934A934207D07B68924A934255
:1004CC0003D0BD219148FFF75EFF3B681B689BB2D0
:1004DC00002B04D03B681B68B3F5803F03D3BE21CF
:1004EC008A48FFF750FF3B685B68002B00F01D82C9
:1004FC003B685B68012B00F018823B685B68112B32
:10050C0000F013823B685B68022B00F00E823B68A4
:10051C005B68122B00F009823B685B687C4A934253
:10052C0000F003823B685B687A4A934200F0FD81DD
:10053C003B685B68784A934200F0F7813B685B68E4
:10054C00764A934200F0F1813B685B68744A9342AF
:10055C0000F0EB813B685B68724A934200F0E581E6
:10056C003B685B68032B00F0E081BF216748FFF715
:10057C000AFFDAE101227B6A02FA03F3FB613B68B2
:10058C001B68FA691340BB61BA69FB699A4240F077
:10059C00C9817B68584A934213D07B68574A93426F
:1005AC000FD07B68564A93420BD07B68554A9342D6
:1005BC0007D07B68544A934203D0CD215348FFF7B0
:1005CC00E2FE3B685B68574A934200F0C280554A92
:1005DC00934200F2E880504A934200F0BA804E4AAF
:1005EC00934200F2E0804E4A934200F0B2804C4AB3
:1005FC00934200F2D880474A934200F0AA80454AC1
:10060C00934200F2D080454A934200F0A280434AC4
:10061C00934200F2C880122B2CD8122B00F2C3800C
:10062C0001A252F823F000BF5F07000889060008FA
:10063C00DB060008AD070008B3070008B307000885
:10064C00B3070008B3070008B3070008B307000896
:10065C00B3070008B3070008B3070008B307000886
:10066C00B3070008B3070008B3070008B106000879
:10067C0035070008264A93426BD094E03B68DB6850
:10068C00022B0BD03B68DB68012B07D03B68DB6887
:10069C00032B03D0D5211D48FFF775FE3B68DB68A3
:1006AC003B6281E03B68DB68022B0BD03B68DB686C
:1006BC00012B07D03B68DB68032B03D0DC211348EC
:1006CC00FFF761FE3B68DB6804333B626CE03B6820
:1006DC00DB68022B0BD03B68DB68012B07D03B6837
:1006EC00DB68032B03D0E3210848FFF74CFE3B6883
:1006FC00DB6808333B6257E000080140000C014006
:10070C000010014000140140001801406817000857
:10071C000000111000002110000031100000121018
:10072C0000002210000032103B68DB68022B0BD05B
:10073C003B68DB68012B07D03B68DB68032B03D0DD
:10074C00EA218048FFF71FFE3B68DB680C333B62F5
:10075C002AE03B689B68002B0BD03B689B68012B05
:10076C0007D03B689B68022B03D0F7217548FFF735
:10077C000AFE3B689B68002B02D104233B6213E00A
:10078C003B689B68012B05D108233B627B68FA69A7
:10079C001A6109E008233B627B68FA695A6103E03D
:1007AC0000233B6200E000BFBB69FF2B01D87B68D4
:1007BC0001E07B6804337B61BB69FF2B02D87B6A49
:1007CC009B0002E07B6A083B9B003B617B691A68DB
:1007DC000F213B6901FA03F3DB431A40396A3B6989
:1007EC0001FA03F31A437B691A603B685B6803F0F8
:1007FC008053002B00F09680534B9B69524A43F078
:10080C0001039361504B9B6903F00103BB60BB6810
:10081C004E4A7B6A9B08023352F82330FB607B6A9A
:10082C0003F003039B000F2202FA03F3DB43FA6885
:10083C001340FB607B68464A934213D07B68454A61
:10084C0093420DD07B68444A934207D07B68434A5D
:10085C00934201D1032306E0042304E0022302E0C7
:10086C00012300E000237A6A02F003029200934015
:10087C00FA681343FB6035497B6A9B080233FA68BC
:10088C0041F823203B685B6803F48013002B06D0EF
:10089C00334B9A683249BB6913438B6006E0304B8B
:1008AC009A68BB69DB432E4913408B603B685B68DD
:1008BC0003F40013002B06D0294BDA682849BB69D6
:1008CC001343CB6006E0264BDA68BB69DB43244953
:1008DC001340CB603B685B6803F40033002B06D0FD
:1008EC001F4B5A681E49BB6913434B6006E01C4BF7
:1008FC005A68BB69DB431A4913404B603B685B6821
:10090C0003F48033002B06D0154B1A681449BB69CD
:10091C0013430B6006E0124B1A68BB69DB431049AA
:10092C0013400B607B6A01337B623B681A687B6AFD
:10093C0022FA03F3002B7FF41DAE00BF00BF283753
:10094C00BD4680BD68170008001002400000014041
:10095C0000080140000C014000100140001401404F
:10096C000004014080B584B000AF78600B467B80FA
:10097C007B88002B04D14FF4DA710948FFF703FD93
:10098C007B689A687B881340002B02D00123FB7391
:10099C0001E00023FB73FB7B18461037BD4680BD7E
:1009AC006817000880B582B000AF78600B467B807A
:1009BC0013467B707B88002B04D14FF4EA710E48F0
:1009CC00FFF7E1FC7B78002B07D07B78012B04D060
:1009DC0040F2D5110848FFF7D6FC7B78002B03D0EA
:1009EC007A887B681A6103E07B881A047B681A6139
:1009FC0000BF0837BD4680BD6817000880B586B0BB
:100A0C0000AF78607B68002B01D101235AE37B682F
:100A1C001B68002B1CD07B681B6803F00103002BA8
:100A2C0016D17B681B6803F00203002B10D17B6886
:100A3C001B6803F00803002B0AD17B681B6803F0CA
:100A4C000403002B04D140F265118F48FFF79BFC87
:100A5C007B681B6803F00103002B00F09A807B6815
:100A6C005B68002B0ED07B685B68B3F5803F09D0C8
:100A7C007B685B68B3F5A02F04D040F26B11824801
:100A8C00FFF781FC814B5B6803F00C03042B0CD04B
:100A9C007E4B5B6803F00C03082B12D17B4B5B681D
:100AAC0003F48033B3F5803F0BD1784B1B6803F410
:100ABC000033002B6CD07B685B68002B68D1012362
:100ACC0000E37B685B68B3F5803F06D16F4B1B6816
:100ADC006E4A43F4803313602EE07B685B68002B16
:100AEC000CD16A4B1B68694A23F480331360674B43
:100AFC001B68664A23F4802313601DE07B685B68E7
:100B0C00B3F5A02F0CD1614B1B68604A43F48023D2
:100B1C0013605E4B1B685D4A43F4803313600BE03B
:100B2C005A4B1B68594A23F480331360574B1B688C
:100B3C00564A23F4802313607B685B68002B13D028
:100B4C00FFF774FC386108E0FFF770FC02463B6964
:100B5C00D31A642B01D90323B4E24C4B1B6803F466
:100B6C000033002BF0D014E0FFF760FC386108E094
:100B7C00FFF75CFC02463B69D31A642B01D90323B3
:100B8C00A0E2424B1B6803F40033002BF0D100E0D1
:100B9C0000BF7B681B6803F00203002B00F0808011
:100BAC007B681B69002B08D07B681B69012B04D068
:100BBC0040F29F113448FFF7E6FB7B685B691F2B03
:100BCC0004D94FF4D0713048FFF7DDFB2F4B5B6835
:100BDC0003F00C03002B0BD02C4B5B6803F00C03C5
:100BEC00082B1CD1294B5B6803F48033002B16D1E6
:100BFC00264B1B6803F00203002B05D07B681B6996
:100C0C00012B01D001235DE2204B1B6823F0F8027D
:100C1C007B685B69DB001D4913430B6040E07B681C
:100C2C001B69002B20D01A4B01221A60FFF7FEFB28
:100C3C00386108E0FFF7FAFB02463B69D31A022B36
:100C4C0001D903233EE2114B1B6803F00203002B76
:100C5C00F0D00E4B1B6823F0F8027B685B69DB005D
:100C6C000A4913430B601BE0094B00221A60FFF783
:100C7C00DDFB38610EE0FFF7D9FB02463B69D31A66
:100C8C00022B07D903231DE2DC17000800100240D9
:100C9C00000042427D4B1B6803F00203002BEAD19B
:100CAC007B681B6803F00803002B40D07B689B69B2
:100CBC00002B08D07B689B69012B04D04FF4F0719A
:100CCC007348FFF760FB7B689B69002B19D0714B55
:100CDC0001221A60FFF7AAFB386108E0FFF7A6FBB8
:100CEC0002463B69D31A022B01D90323EAE1674B75
:100CFC005B6A03F00203002BF0D0012000F0D0FB64
:100D0C0015E0644B00221A60FFF790FB386108E095
:100D1C00FFF78CFB02463B69D31A022B01D9032344
:100D2C00D0E15A4B5B6A03F00203002BF0D17B68D5
:100D3C001B6803F00403002B00F0BF800023FB753D
:100D4C007B68DB68002B0CD07B68DB68012B08D040
:100D5C007B68DB68052B04D040F20F214C48FFF771
:100D6C0012FB4A4BDB6903F08053002B0DD1474B30
:100D7C00DB69464A43F08053D361444BDB6903F093
:100D8C008053BB60BB680123FB75434B1B6803F4AA
:100D9C008073002B18D1404B1B683F4A43F480737F
:100DAC001360FFF743FB386108E0FFF73FFB024697
:100DBC003B69D31A642B01D9032383E1364B1B689F
:100DCC0003F48073002BF0D07B68DB68012B06D119
:100DDC002E4B1B6A2D4A43F0010313622DE07B68F6
:100DEC00DB68002B0CD1294B1B6A284A23F001032A
:100DFC001362264B1B6A254A23F0040313621CE082
:100E0C007B68DB68052B0CD1204B1B6A1F4A43F017
:100E1C00040313621D4B1B6A1C4A43F0010313624B
:100E2C000BE01A4B1B6A194A23F001031362174B90
:100E3C001B6A164A23F0040313627B68DB68002BE1
:100E4C0015D0FFF7F3FA38610AE0FFF7EFFA024624
:100E5C003B69D31A41F28832934201D9032331E121
:100E6C000A4B1B6A03F00203002BEED01CE0FFF7C9
:100E7C00DDFA386112E0FFF7D9FA02463B69D31A62
:100E8C0041F28832934209D903231BE1001002403E
:100E9C00DC17000880044242007000408B4B1B6A38
:100EAC0003F00203002BE6D1FB7D012B05D1874B10
:100EBC00DB69864A23F08053D3617B68DB69002BA6
:100ECC000CD07B68DB69012B08D07B68DB69022BBB
:100EDC0004D040F2AD217E48FFF755FA7B68DB6900
:100EEC00002B00F0EE80794B5B6803F00C03082BB1
:100EFC0000F0CE807B68DB69022B40F0B2807B680F
:100F0C001B6A002B09D07B681B6AB3F5803F04D0A9
:100F1C0040F2B6216E48FFF736FA7B685B6A002B0D
:100F2C004AD07B685B6AB3F5802F45D07B685B6ADF
:100F3C00B3F5002F40D07B685B6AB3F5402F3BD0F4
:100F4C007B685B6AB3F5801F36D07B685B6AB3F550
:100F5C00A01F31D07B685B6AB3F5C01F2CD07B68B7
:100F6C005B6AB3F5E01F27D07B685B6AB3F5001FA3
:100F7C0022D07B685B6AB3F5101F1DD07B685B6A5F
:100F8C00B3F5201F18D07B685B6AB3F5301F13D004
:100F9C007B685B6AB3F5401F0ED07B685B6AB3F568
:100FAC00501F09D07B685B6AB3F5601F04D040F218
:100FBC00B7214748FFF7E7F9464B00221A60FFF7C5
:100FCC0035FA386108E0FFF731FA02463B69D31A6B
:100FDC00022B01D9032375E03C4B1B6803F0007313
:100FEC00002BF0D17B681B6AB3F5803F16D17B6870
:100FFC009B68002B09D07B689B68B3F5003F04D03D
:10100C0040F2CD213248FFF7BEF9304B5B6823F438
:10101C0000327B689B682D4913434B602B4B5B68FC
:10102C0023F474127B68196A7B685B6A0B4327494B
:10103C0013434B60274B01221A60FFF7F7F9386115
:10104C0008E0FFF7F3F902463B69D31A022B01D9EA
:10105C00032337E01D4B1B6803F00073002BF0D00B
:10106C002FE01C4B00221A60FFF7E0F9386108E012
:10107C00FFF7DCF902463B69D31A022B01D9032393
:10108C0020E0124B1B6803F00073002BF0D118E02A
:10109C007B68DB69012B01D1012313E00B4B5B68EF
:1010AC00FB60FB6803F480327B681B6A9A4206D1B2
:1010BC00FB6803F470127B685B6A9A4201D00123CF
:1010CC0000E0002318461837BD4680BD00100240D2
:1010DC00DC1700086000424280B584B000AF786035
:1010EC0039607B68002B01D1012376E17B681B689A
:1010FC0003F00103002B16D17B681B6803F002037D
:10110C00002B10D17B681B6803F00403002B0AD161
:10111C007B681B6803F00803002B04D140F23631C6
:10112C007448FFF730F93B68002B0AD03B68012B61
:10113C0007D03B68022B04D040F237316D48FFF7E3
:10114C0022F96D4B1B6803F007033A689A4210D9D9
:10115C00694B1B6823F0070267493B6813430B601C
:10116C00654B1B6803F007033A689A4201D00123D0
:10117C0033E17B681B6803F00203002B49D07B68CA
:10118C001B6803F00403002B05D05C4B5B685B4AC7
:10119C0043F4E06353607B681B6803F00803002B87
:1011AC0005D0564B5B68554A43F4605353607B68DB
:1011BC009B68002B24D07B689B68802B20D07B689D
:1011CC009B68902B1CD07B689B68A02B18D07B68ED
:1011DC009B68B02B14D07B689B68C02B10D07B68AD
:1011EC009B68D02B0CD07B689B68E02B08D07B686D
:1011FC009B68F02B04D040F25D313E48FFF7C3F8FA
:10120C003E4B5B6823F0F0027B689B683B491343C1
:10121C004B607B681B6803F00103002B51D07B688B
:10122C005B68002B0CD07B685B68012B08D07B685B
:10123C005B68022B04D04FF459712E48FFF7A3F8CA
:10124C007B685B68012B07D12C4B1B6803F40033C4
:10125C00002B15D10123C0E07B685B68022B07D102
:10126C00264B1B6803F00073002B09D10123B4E05B
:10127C00224B1B6803F00203002B01D10123ACE0CD
:10128C001E4B5B6823F003027B685B681B491343AE
:10129C004B60FFF7CBF8F8600AE0FFF7C7F802469F
:1012AC00FB68D31A41F28832934201D9032394E0AC
:1012BC00124B5B6803F00C027B685B689B009A42E4
:1012CC00EBD10D4B1B6803F007033A689A4217D217
:1012DC00094B1B6823F0070207493B6813430B605B
:1012EC00054B1B6803F007033A689A4208D00123A8
:1012FC0073E000BFDC170008002002400010024021
:10130C007B681B6803F00403002B25D07B68DB682B
:10131C00002B18D07B68DB68B3F5806F13D07B682B
:10132C00DB68B3F5A06F0ED07B68DB68B3F5C06FDC
:10133C0009D07B68DB68B3F5E06F04D040F2A231D2
:10134C002848FFF720F8284B5B6823F4E0627B68A1
:10135C00DB68254913434B607B681B6803F008036B
:10136C00002B26D07B681B69002B18D07B681B696F
:10137C00B3F5806F13D07B681B69B3F5A06F0ED0EB
:10138C007B681B69B3F5C06F09D07B681B69B3F52B
:10139C00E06F04D040F2A9311248FEF7F4FF124B73
:1013AC005B6823F460527B681B69DB000E491343B6
:1013BC004B6000F021F802460B4B5B681B0903F0F5
:1013CC000F030A49CB5C22FA03F3094A1360094B59
:1013DC001B681846FEF7FAFF002318461037BD4667
:1013EC0080BD00BFDC17000800100240D4180008B4
:1013FC00080000200000002080B487B000AF00235C
:10140C00FB600023BB6000237B6100237B60002317
:10141C003B611E4B5B68FB60FB6803F00C03042B09
:10142C0002D0082B03D027E0194B3B6127E0FB6867
:10143C009B0C03F00F03174AD35C7B60FB6803F42F
:10144C008033002B10D0114B5B685B0C03F0010355
:10145C00114AD35CBB607B680D4A03FB02F2BB688C
:10146C00B2FBF3F37B6104E07B680C4A02FB03F3F1
:10147C007B617B693B6102E0054B3B6100BF3B69D3
:10148C0018461C37BD4680BC704700BF0010024098
:10149C0000127A00C0180008D018000800093D009E
:1014AC0080B485B000AF78600A4B1B680A4AA2FB77
:1014BC0003235B0A7A6802FB03F3FB6000BFFB6843
:1014CC005A1EFA60002BF9D100BF00BF1437BD467D
:1014DC0080BC704708000020D34D621080B485B0EA
:1014EC0000AF78607B6803F00703FB600C4BDB6894
:1014FC00BB60BA684FF6FF031340BB60FB681A026F
:10150C00BB68134343F0BF6343F40033BB60044A2E
:10151C00BB68D36000BF1437BD4680BC704700BFAA
:10152C0000ED00E080B400AF044BDB681B0A03F055
:10153C0007031846BD4680BC704700BF00ED00E0B5
:10154C0080B483B000AF03463960FB7197F9073064
:10155C00002B0ADB3B68DAB20C4997F90730120111
:10156C00D2B20B4483F800230AE03B68DAB2084994
:10157C00FB7903F00F03043B1201D2B20B441A7631
:10158C0000BF0C37BD4680BC704700BF00E100E0D7
:10159C0000ED00E080B489B000AFF860B9607A600B
:1015AC00FB6803F00703FB61FB69C3F10703042B22
:1015BC0028BF0423BB61FB690433062B02D9FB69EA
:1015CC00033B00E000237B614FF0FF32BB6902FA62
:1015DC0003F3DA43BB681A407B699A404FF0FF3142
:1015EC007B6901FA03F3D9437B680B40134318461C
:1015FC002437BD4680BC704780B582B000AF7860A0
:10160C007B68013BB3F1807F01D301230FE00A4AD1
:10161C007B68013B53600F214FF0FF30FFF790FFC9
:10162C00054B00229A60044B07221A6000231846CF
:10163C000837BD4680BD00BF10E000E080B582B029
:10164C0000AF78607B68072B0FD07B68062B0CD023
:10165C007B68052B09D07B68042B06D07B68032B99
:10166C0003D091210448FEF78EFE7868FFF736FF11
:10167C0000BF0837BD4680BD4C18000880B586B049
:10168C0000AF0346B9607A60FB7300237B617B6813
:10169C000F2B03D9A9210E48FEF775FEBB680F2B43
:1016AC0003D9AA210A48FEF76EFEFFF73BFF7861CB
:1016BC007A68B9687869FFF76DFF024697F90F30C1
:1016CC0011461846FFF73CFF00BF1837BD4680BDDA
:1016DC004C18000880B582B000AF78607868FFF7CE
:1016EC008BFF034618460837BD4680BD80B400AF5B
:1016FC0000BFBD4680BC7047FFF7F8FF0B480C4994
:10170C000C4A002302E0D458C4500433C4188C4251
:10171C00F9D3094A094C002301E013600432A242B8
:10172C00FBD3FEF73BFDFEF75DFD7047000000208C
:10173C000C000020EC1800080C0000202C000020ED
:10174C00FEE70000F8B500BFF8BC08BC9E46704729
:0C175C00F8B500BFF8BC08BC9E46704702
:10176800433A2F55736572732F44454C4C2F6D6C5B
:10177800696F742D656D626564646564632D3230CC
:1017880032362D68772F7765656B30342F4750498F
:101798004F5F50726163746973652F44726976652F
:1017A80072732F53544D3332463178785F48414C29
:1017B8005F4472697665722F5372632F73746D3349
:1017C80032663178785F68616C5F6770696F2E6325
:1017D80000000000433A2F55736572732F44454C3F
:1017E8004C2F6D6C696F742D656D626564646564FA
:1017F800632D323032362D68772F7765656B30343C
:101808002F4750494F5F50726163746973652F4465
:101818007269766572732F53544D33324631787836
:101828005F48414C5F4472697665722F5372632F2B
:1018380073746D3332663178785F68616C5F726398
:10184800632E6300433A2F55736572732F44454CDA
:101858004C2F6D6C696F742D656D62656464656489
:10186800632D323032362D68772F7765656B3034CB
:101878002F4750494F5F50726163746973652F44F5
:101888007269766572732F53544D333246317878C6
:101898005F48414C5F4472697665722F5372632FBB
:1018A80073746D3332663178785F68616C5F636F2B
:1018B800727465782E6300000203040506070809A0
:1018C8000A0B0C0D0E0F10100102000000000000A2
:0C18D800000000000102030406070809DC
:0418E4007501000882
:0418E8004D010008A6
:0C18EC00100000000100000000127A0053
:0400000508001705D3
:00000001FF
