:020000040800F2
:1000000000500020E50200082D0300082D03000821
:100010002D0300082D0300082D0300080000000038
:100020000000000000000000000000002D03000898
:100030002D030008000000002D0300082D03000818
:100040002D0300082D0300082D0300082D030008D0
:100050002D0300082D0300082D0300082D030008C0
:100060002D0300082D0300082D0300082D030008B0
:100070002D0300082D0300082D0300082D030008A0
:100080002D0300082D0300082D0300082D03000890
:100090002D0300082D0300082D0300082D03000880
:1000A0002D0300082D0300082D0300082D03000870
:1000B0002D0300082D0300082D0300082D03000860
:1000C0002D0300082D0300082D0300082D03000850
:1000D0002D0300082D0300082D0300082D03000840
:1000E0002D0300082D0300082D0300080000000068
:1000F0000000000000000000000000000000000000
:0C01000000000000000000005FF808F1A3
:10010C000348044B834202D0034B03B1184770479A
:10011C000000002000000020000000000548064BF5
:10012C001B1AD90F01EBA301491002D0034B03B1E9
:10013C00184770470000002000000020000000005D
:10014C0010B5064C237843B9FFF7DAFF044B13B113
:10015C000448AFF300800123237010BD0000002081
:10016C00000000003003000808B5054B1BB1054921
:10017C000548AFF30080BDE80840FFF7CFBF00BFD4
:10018C0000000000040000203003000870B50026B9
:10019C000C4D0D4C641BA410A64209D100F0C2F802
:1001AC0000260A4D0A4C641BA410A64205D170BD52
:1001BC0055F8043B98470136EEE755F8043B984751
:1001CC000136F2E74803000848030008480300081A
:1001DC004C03000880B485B000AF7860114B41F639
:1001EC003F725A600F4B00229A600E4B05221A6028
:1001FC000023FB6009E000BF0A4B1B6803F480334B
:10020C00002BF9D0FB680133FB60FA687B689A42DB
:10021C00F1D3044B00221A6000BF1437BD4680BCDA
:10022C00704700BF10E000E080B500AF244B9B6925
:10023C00234A43F014039361224B5B68214A23F455
:10024C00700353601F4B5B681E4A43F400135360EA
:10025C001D4B1B681C4A23F00F0313601A4B1B68C1
:10026C00194A43F008031360174BDB68164A43F036
:10027C000103D360134BDB68124A43F40053D36081
:10028C00114B9B6803F00103002BF9D11420FFF7ED
:10029C00A1FF0D4B9B6803F00103002BF0D100BFB5
:1002AC00094B9B6803F00103002BF9D01420FFF7D6
:1002BC0091FF044BDB68034A83F40053D360DFE700
:1002CC0000100240001001400008014080B400AF53
:1002DC0000BFBD4680BC7047FFF7F8FF0B480C49C8
:1002EC000C4A002302E0D458C4500433C4188C4286
:1002FC00F9D3094A094C002301E013600432A242ED
:10030C00FBD3FFF743FFFFF78FFF70470000002080
:10031C000000002050030008000000201C000020FA
:10032C00FEE70000F8B500BFF8BC08BC9E4670475D
:0C033C00F8B500BFF8BC08BC9E46704736
:040348007501000833
:04034C004D01000857
:04000005080002E508
:00000001FF
