:020000040800F2
:100000000050002089020008D1020008D102000837
:10001000D1020008D1020008D1020008000000004F
:10002000000000000000000000000000D1020008F5
:10003000D102000800000000D1020008D10200082F
:10004000D1020008D1020008D1020008D102000844
:10005000D1020008D1020008D1020008D102000834
:10006000D1020008D1020008D1020008D102000824
:10007000D1020008D1020008D1020008D102000814
:10008000D1020008D1020008D1020008D102000804
:10009000D1020008D1020008D1020008D1020008F4
:1000A000D1020008D1020008D1020008D1020008E4
:1000B000D1020008D1020008D1020008D1020008D4
:1000C000D1020008D1020008D1020008D1020008C4
:1000D000D1020008D1020008D1020008D1020008B4
:1000E000D1020008D1020008D1020008000000007F
:1000F0000000000000000000000000000000000000
:0C01000000000000000000005FF808F1A3
:10010C000348044B834202D0034B03B1184770479A
:10011C000000002000000020000000000548064BF5
:10012C001B1AD90F01EBA301491002D0034B03B1E9
:10013C00184770470000002000000020000000005D
:10014C0010B5064C237843B9FFF7DAFF044B13B113
:10015C000448AFF300800123237010BD0000002081
:10016C0000000000D402000808B5054B1BB105497E
:10017C000548AFF30080BDE80840FFF7CFBF00BFD4
:10018C000000000004000020D402000870B5002616
:10019C000C4D0D4C641BA410A64209D100F094F830
:1001AC0000260A4D0A4C641BA410A64205D170BD52
:1001BC0055F8043B98470136EEE755F8043B984751
:1001CC000136F2E7EC020008EC020008EC02000831
:1001DC00F002000880B485B000AF7860114B41F696
:1001EC003F725A600F4B00229A600E4B05221A6028
:1001FC000023FB6009E000BF0A4B1B6803F480334B
:10020C00002BF9D0FB680133FB60FA687B689A42DB
:10021C00F1D3044B00221A6000BF1437BD4680BCDA
:10022C00704700BF10E000E080B500AF0E4B9B693B
:10023C000D4A43F0100393610C4B5B680B4A23F49B
:10024C0070035360094B5B68084A43F40013536016
:10025C00064BDB68054A83F40053D3604FF4FA7005
:10026C00FFF7B8FF00BFF3E7001002400010014099
:10027C0080B400AF00BFBD4680BC7047FFF7F8FFED
:10028C000B480C490C4A002302E0D458C4500433E8
:10029C00C4188C42F9D3094A094C002301E01360BD
:1002AC000432A242FBD3FFF771FFFFF7BDFF70478B
:1002BC000000002000000020F402000800000020D4
:1002CC001C000020FEE70000F8B500BFF8BC08BC1D
:1002DC009E467047F8B500BFF8BC08BC9E467047F8
:0402EC007501000890
:0402F0004D010008B4
:040000050800028964
:00000001FF
